{
  "contractName": "PaymentProcessor",
  "abi": [
    {
      "inputs": [
        {
          "internalType": "address",
          "name": "adminAddress",
          "type": "address"
        },
        {
          "internalType": "address",
          "name": "daiAddress",
          "type": "address"
        }
      ],
      "stateMutability": "nonpayable",
      "type": "constructor"
    },
    {
      "anonymous": false,
      "inputs": [
        {
          "indexed": false,
          "internalType": "address",
          "name": "payer",
          "type": "address"
        },
        {
          "indexed": false,
          "internalType": "uint256",
          "name": "amount",
          "type": "uint256"
        },
        {
          "indexed": false,
          "internalType": "uint256",
          "name": "paymentId",
          "type": "uint256"
        },
        {
          "indexed": false,
          "internalType": "uint256",
          "name": "date",
          "type": "uint256"
        }
      ],
      "name": "PaymentDone",
      "type": "event"
    },
    {
      "inputs": [],
      "name": "admin",
      "outputs": [
        {
          "internalType": "address",
          "name": "",
          "type": "address"
        }
      ],
      "stateMutability": "view",
      "type": "function",
      "constant": true
    },
    {
      "inputs": [],
      "name": "dai",
      "outputs": [
        {
          "internalType": "contract IERC20",
          "name": "",
          "type": "address"
        }
      ],
      "stateMutability": "view",
      "type": "function",
      "constant": true
    },
    {
      "inputs": [
        {
          "internalType": "uint256",
          "name": "amount",
          "type": "uint256"
        },
        {
          "internalType": "uint256",
          "name": "paymentId",
          "type": "uint256"
        }
      ],
      "name": "purchasePay",
      "outputs": [],
      "stateMutability": "nonpayable",
      "type": "function"
    }
  ],
  "bytecode": "0x608060405234801561001057600080fd5b506040516105b23803806105b2833981810160405281019061003291906100cf565b816000806101000a81548173ffffffffffffffffffffffffffffffffffffffff021916908373ffffffffffffffffffffffffffffffffffffffff16021790555080600160006101000a81548173ffffffffffffffffffffffffffffffffffffffff021916908373ffffffffffffffffffffffffffffffffffffffff160217905550505061015d565b6000815190506100c981610146565b92915050565b600080604083850312156100e6576100e5610141565b5b60006100f4858286016100ba565b9250506020610105858286016100ba565b9150509250929050565b600061011a82610121565b9050919050565b600073ffffffffffffffffffffffffffffffffffffffff82169050919050565b600080fd5b61014f8161010f565b811461015a57600080fd5b50565b6104468061016c6000396000f3fe608060405234801561001057600080fd5b50600436106100415760003560e01c8063738580db14610046578063f4b9fa7514610062578063f851a44014610080575b600080fd5b610060600480360381019061005b9190610252565b61009e565b005b61006a6101b1565b6040516100779190610356565b60405180910390f35b6100886101d7565b60405161009591906102bf565b60405180910390f35b600160009054906101000a900473ffffffffffffffffffffffffffffffffffffffff1673ffffffffffffffffffffffffffffffffffffffff166323b872dd3360008054906101000a900473ffffffffffffffffffffffffffffffffffffffff16856040518463ffffffff1660e01b815260040161011d939291906102da565b602060405180830381600087803b15801561013757600080fd5b505af115801561014b573d6000803e3d6000fd5b505050506040513d601f19601f8201168201806040525081019061016f9190610225565b507f78eaebe37a28490ff43ed0e95bdc47de1587156ac0069b652e1d2d9f42464e98338383426040516101a59493929190610311565b60405180910390a15050565b600160009054906101000a900473ffffffffffffffffffffffffffffffffffffffff1681565b60008054906101000a900473ffffffffffffffffffffffffffffffffffffffff1681565b60008151905061020a816103e2565b92915050565b60008135905061021f816103f9565b92915050565b60006020828403121561023b5761023a6103dd565b5b6000610249848285016101fb565b91505092915050565b60008060408385031215610269576102686103dd565b5b600061027785828601610210565b925050602061028885828601610210565b9150509250929050565b61029b81610371565b82525050565b6102aa816103b9565b82525050565b6102b9816103af565b82525050565b60006020820190506102d46000830184610292565b92915050565b60006060820190506102ef6000830186610292565b6102fc6020830185610292565b61030960408301846102b0565b949350505050565b60006080820190506103266000830187610292565b61033360208301866102b0565b61034060408301856102b0565b61034d60608301846102b0565b95945050505050565b600060208201905061036b60008301846102a1565b92915050565b600061037c8261038f565b9050919050565b60008115159050919050565b600073ffffffffffffffffffffffffffffffffffffffff82169050919050565b6000819050919050565b60006103c4826103cb565b9050919050565b60006103d68261038f565b9050919050565b600080fd5b6103eb81610383565b81146103f657600080fd5b50565b610402816103af565b811461040d57600080fd5b5056fea2646970667358221220d1cf9c1cbb2d9cfdee6848a35552c06d2d18f7db7af11881112a332b1133f13b64736f6c63430008060033",
  "immutableReferences": {},
  "source": "// SPDX-License-Identifier: MIT\nimport \"openzeppelin-solidity/contracts/token/ERC20/ERC20.sol\";\n\npragma solidity 0.8.6;\n\ncontract PaymentProcessor {\n\taddress public admin; // ADMIN/MERCHANT address\n\tIERC20 public dai; // DAI address\n\n\tconstructor(address adminAddress, address daiAddress) {\n\t\tadmin = adminAddress;\n\t\tdai = IERC20(daiAddress);\n\t}\n\n\tevent PaymentDone(\n\t\taddress payer,\n\t\tuint amount,\n\t\tuint paymentId,\n\t\tuint date\n\t);\n\n\tfunction purchasePay(uint amount, uint paymentId) external {\n\t\tdai.transferFrom(msg.sender, admin, amount);\n\t\temit PaymentDone(msg.sender, amount, paymentId, block.timestamp);\n\t}\n}",
  "sourcePath": "/home/binod/projects/blockchain/d-commerce/contracts/PaymentProcessor.sol",
  "compiler": {
    "name": "solc",
    "version": "0.8.6+commit.11564f7e.Emscripten.clang"
  },
  "schemaVersion": "3.4.1",
  "updatedAt": "2021-08-01T04:24:31.432Z",
  "networkType": "ethereum",
  "devdoc": {
    "kind": "dev",
    "methods": {},
    "version": 1
  },
  "userdoc": {
    "kind": "user",
    "methods": {},
    "version": 1
  }
}